:100000000C9489040C94B1040C94B1040C94B104C4
:100010000C94B1040C94B1040C94B1040C94B1048C
:100020000C94B1040C94B1040C94B1040C9415110B
:100030000C94B1040C94B1040C94B1040C94B1046C
:100040000C94540F0C94B1040C94C40F0C949E0F98
:100050000C94B1040C94B1040C94B1040C94B1044C
:100060000C94F60F0C94B104084AD73B3BCE016EBA
:1000700084BCBFFDC12F3D6C74319ABD56833DDAFF
:100080003D00C77F11BED9E4BB4C3E916BAAAABE0E
:10009000000000803F00FB00003E000B0036000126
:1000A00000020003000000650054FFEF0000FA802A
:1000B000000B12820001000200000000000000009E
:1000C00000000000000000280000FFFF4581FFFF46
:1000D000FA7200000000000003E8000000010001C7
:1000E0007FFFFFFE8001001B0000000000000000F9
:1000F000000000000000004000004000000002CBB3
:1001000047A2200000002000000000000000400086
:1001100000006000000041FF000000000B2A00000A
:10012000165500002182FD872650FD800000001F2B
:100130000000000580000000000000010000000237
:10014000000000030000400000000000046F0002F7
:10015000653200005EC040000000000000000000AA
:10016000000000000000FB8C6F5DFD5D08D9007C85
:10017000733B006C12CC3200139D3200D0D632009B
:100180000800400001F4FFE6807902000000000052
:10019000D0D600002710FB00000040000000000047
:1001A000000000000000000000010000000000004E
:1001B0000100010000000000FA36FFBC308E00058F
:1001C000FBF0FFD95BC8FFD09ABE000010A9FFF476
:1001D0001EB200CEBBF700000001000000040002C8
:1001E00000020200000CFFC280000001800000CF6E
:1001F000800040000000000000000000000000003F
:1002000006000000001400000000000000000000D4
:1002100000000000000000000000000000000000DE
:100220000000000000000923A135000000000000CC
:1002300000000000000000000000033F68B67935B0
:1002400028BCC67ED16C8000FFFF4000000000008B
:10025000B26A000000000000000000000000000082
:100260003FF000000030000000000000000000002F
:10027000000000000000000000000000000000007E
:100280000000000040000000254D002F706D0000B0
:1002900005AE000C02D00000000000650054FFEF26
:1002A0000000000000000000010000440001000503
:1002B0008BC1000001000000000000650000005438
:1002C0000000FFEF00000000000000000000000040
:1002D000000000000000000000000000000000001E
:1002E000000000000000000000000000000000000E
:1002F00000000000000000000001000000020000FB
:1003000000000000000000000000000000000000ED
:1003100000000000000000000000000000000000DD
:10032000000000000000001B0000000000000000B2
:1003300000000000000000000000000000000000BD
:1003400000000000000000000000000000000000AD
:10035000000000000000001B000000000000000082
:10036000000000000000000000000000000000008D
:10037000000000000000000000000000000000007D
:10038000000000000000000000000000000000006D
:10039000000000000000D8DCBAA2F1DEB2B8B4A8B8
:1003A0008191F74A907F916AF3F9DBA8F9B0BAA07E
:1003B00080F2CE81F3C2F1C1F2C3F3CCA2B280F1DC
:1003C000C6D880BAA7DFDFDFF2A7C3CBC5B6F087F8
:1003D000A2942448703C95406834589B78A2F183DD
:1003E000922D557DD8B1B4B8A1D09180F270F37040
:1003F000F27C80A8F101B09887D943D886C988BA21
:10040000A1F20EB89780F1A9DFDFDFAADFDFDFF20C
:10041000AA4CCD6CA90CC92C97979797F1A989265E
:100420004666B0B4BA80ACDEF2CAF1B28C02A9B6AC
:100430009800890E161EB8A9B4992C547CB08AA8CD
:1004400096365676F1B9AFB4B083C0B8A89711B15B
:100450008F98B9AFF0240844106418F1A329557D92
:10046000AF83B593AFF0002850F1A3869F61A6DA61
:10047000DEDFD9FAA38696DB31A6D9F8DFBAA68FDC
:10048000C2C5C7B28CC1B8A2DFDFDFA3DFDFDFD810
:10049000D8F1B8A8B286B4980D355DB8AA98B087DF
:1004A0002D353DB2B6BAAF8C96198F9FA70E161E8A
:1004B000B49AB8AA872C547CB9A3DEDFDFA3B1803D
:1004C000F2C4CDC9F1B8A9B499830D355D89B9A33A
:1004D0002D557DB593A30E161EA92C547CB8B4B02F
:1004E000F19783A81184A50998A383F0DA2408441E
:1004F000106418D8F1A529557DA58595021A2E3AC4
:10050000565A4048F9F3A3D9F8F0988324084410C8
:1005100064189782A8F111F098A224084410641876
:10052000DAF3DED883A59401D9A302F1A2C3C5C72B
:10053000D8F18492A24DDA2AD84869D92AD86855C8
:10054000DA32D85071D932D8705DDA3AD85879D9C0
:100550003AD87893A34DDA2AD84869D92AD8685569
:10056000DA32D85071D932D8705DDA3AD85879D9A0
:100570003AD878A88A9AF02850789EF38818F19F84
:100580001D98A8D908D8C89F129EF315A8DA121092
:10059000D8F1AFC8978734B5B994A421F3D922D83C
:1005A000F22DF3D92AD8F235F3D932D881A460607C
:1005B00061D961D86C6869D969D8747071D971D8FA
:1005C000B1A384193D5DA3831A3E5E931030811060
:1005D00011B8B0AF8F94F2DA3ED8B49AA88729DA6E
:1005E000F8D8879A35DAF8D8879A3DDAF8D8B1B9C9
:1005F000A49885022E56A581000C14A397B08AF109
:100600002DD928D84DD948D86DD968D8B1840DDAFC
:100610000ED8A32983DA2C0ED8A3844983DA2C4C74
:100620000ED8B8B0A88A9AF520AADADFD8A840AACE
:10063000D0DADED8A860AADAD0DFD8F19786A83160
:100640009B069907AB9728889BF00C201440B8B004
:10065000B4A88C9CF0042851791D301438B282ABB8
:10066000D0982C505078789BF11AB0F08A9CA82929
:1006700051798B2951798A2470598B2058718A4479
:1006800069388B3940688A6448318B304960A58865
:10069000200971584468113964493019F1AC002CB3
:1006A000547CF08CA804285078F1889726A8599893
:1006B000AC8C02264666F0899CA829517924705991
:1006C000446938644831A98809205970AB11384011
:1006D00069A8193148608CA83C415C207C00F187F6
:1006E000981986A86E767EA999882D557D9EB9A306
:1006F0008A228A6E8A568A5E9FB183062646660ED5
:100700002E4E6E9DB8AD002C547CF2B18CB499B9CC
:10071000A32D557D8191AC38AD3AB58391AC2DD9DF
:1007200028D84DD948D86DD968D88C9DAE29D90420
:10073000AED851D904AED879D904D881F39DAD0093
:100740008DAE1981ADD901D8F2AEDA26D88E9129B5
:1007500083A7D9ADADADADF32AD8D8F1B0AC8991AE
:100760003E5E76F3AC2E2EF1B18C5A9CAC2C282830
:10077000289CAC3018A8988128343C9724A72834AA
:100780003C9C24F2B089AC912C4C6C8A9B2DD9D81E
:10079000D851D9D8D879D9D8D8F19E88A331DAD808
:1007A000D8912DD928D84DD948D86DD968D8B183DA
:1007B00093353D8025DAD8D88569DAD8D8B49381C5
:1007C000A328343CF3AB8BF8A391B609B4D9ABDEC4
:1007D000FAB0879CB9A3DDF1202830389AF128308F
:1007E000389DF1A3A3A3A3F2A3B49080F2A3A3A383
:1007F000A3A3A3A3A3A3A3B2A3A3A3A3A3A3B087C9
:10080000B599F128303898F1A3A3A3A397A3A3A384
:10081000A3F39BA330DCB9A7F1262626FED8FF0060
:10082000000000240027002A00446F6E65203A294A
:100830002000444D50207265616479212057616920
:1008400074696E6720666F722066697273742069BE
:100850006E746572727570742E2E2E00292E2E2ED7
:1008600000456E61626C696E6720696E74657272B4
:1008700075707420646574656374696F6E202841B7
:10088000726475696E6F2065787465726E616C2034
:10089000696E746572727570742000456E61626C69
:1008A000696E6720444D502E2E2E00496E69746982
:1008B000616C697A696E6720444D502E2E2E0000BF
:1008C0000000002300260029000000000025002869
:1008D000002B0004040404040404040202020202C3
:1008E00002030303030303010204081020408001F4
:1008F0000204081020010204081020000000080073
:1009000002010000030407000000000000000000D6
:10091000EC1111241FBECFEFD8E0DEBFCDBF12E037
:10092000A0E0B1E0E6EFFFE302C005900D92A43233
:10093000B107D9F724E0A4E2B2E001C01D92AC37C0
:10094000B207E1F714E0C9E8D4E004C02197FE0142
:100950000E947E1BC838D107C9F70E9487120C94E9
:10096000F91F0C940000833081F028F4813099F055
:100970008230A9F008958730A9F08830C9F084301A
:10098000B1F4809180008F7D03C0809180008F77CB
:1009900080938000089584B58F7784BD089584B5D1
:1009A0008F7DFBCF8091B0008F778093B00008954A
:1009B0008091B0008F7DF9CF1F93CF93DF93282FC5
:1009C00030E0F901E550F74F8491F901E951F74F13
:1009D000D491F901ED52F74FC491CC23A9F0162F11
:1009E00081110E94B304EC2FF0E0EE0FFF1FE753DC
:1009F000F74FA591B4918FB7F894EC91111108C0FD
:100A0000D095DE23DC938FBFDF91CF911F910895A6
:100A1000DE2BF8CF3FB7F8948091F9029091FA025B
:100A2000A091FB02B091FC0226B5A89B05C02F3F08
:100A300019F00196A11DB11D3FBFBA2FA92F982F04
:100A40008827BC01CD01620F711D811D911D42E0FF
:100A5000660F771F881F991F4A95D1F708958F92C7
:100A60009F92AF92BF92CF92DF92EF92FF924B0193
:100A70005C010E940A056B017C010E940A056C1949
:100A80007D098E099F09683E734081059105A8F391
:100A900021E0821A9108A108B10888EEC80E83E00F
:100AA000D81EE11CF11C81149104A104B10429F7A2
:100AB000FF90EF90DF90CF90BF90AF909F908F907E
:100AC00008952FB7F8946091F5027091F602809125
:100AD000F7029091F8022FBF089508950895AF92FC
:100AE000BF92CF92DF92EF92FF920F931F93CF931B
:100AF000DF936C017B018B01040F151FEB015E017D
:100B0000AE18BF08C017D10759F06991D601ED9111
:100B1000FC910190F081E02DC6010995892B79F7B0
:100B2000C501DF91CF911F910F91FF90EF90DF9062
:100B3000CF90BF90AF900895FC01538D448D252F29
:100B400030E0842F90E0821B930B541710F0CF9667
:100B5000089501970895FC01918D828D981761F099
:100B6000A28DAE0FBF2FB11D5D968C91928D9F5FB0
:100B70009F73928F90E008958FEF9FEF0895FC018F
:100B8000918D828D981731F0828DE80FF11D858D42
:100B900090E008958FEF9FEF0895FC01918D228DD5
:100BA000892F90E0805C9F4F821B91098F7399275A
:100BB00008958DE693E00E94CD0521E0892B09F48C
:100BC00020E0822F089580E090E0892B29F00E9498
:100BD000D90581110C9400000895FC01A48DA80F83
:100BE000B92FB11DA35ABF4F2C91848D90E001966F
:100BF0008F739927848FA689B7892C93A089B1898F
:100C00008C91837080648C93938D848D981306C02F
:100C10000288F389E02D80818F7D80830895EF9293
:100C2000FF920F931F93CF93DF93EC0181E0888FA6
:100C30009B8D8C8D98131AC0E889F989808185FF76
:100C400015C09FB7F894EE89FF896083E889F98918
:100C500080818370806480839FBF81E090E0DF911A
:100C6000CF911F910F91FF90EF900895F62E0B8D6D
:100C700010E00F5F1F4F0F731127E02E8C8D8E1128
:100C80000CC00FB607FCFACFE889F989808185FF8F
:100C9000F5CFCE010E94ED05F1CFEB8DEC0FFD2FCE
:100CA000F11DE35AFF4FF0829FB7F8940B8FEA894A
:100CB000FB8980818062CFCF0F931F93CF93DF9307
:100CC0008C01D0E0C0E0F801EC0FFD1F64916623B9
:100CD00041F08DE693E00E940F06892B11F02196DA
:100CE000F2CFCE01DF91CF911F910F910895CF9355
:100CF000DF93EC01888D8823B9F0AA89BB89E88944
:100D0000F9898C9185FD03C0808186FD0DC00FB6E9
:100D100007FCF7CF8C9185FFF2CF808185FFEDCF67
:100D2000CE010E94ED05E9CFDF91CF91089520918A
:100D30004702260F3327331F21323105ECF420916F
:100D40006703FC0190E080E0243069F082E00895C0
:100D5000A09147022191AC01495D5D4FA40FB52FD1
:100D6000B11D2C930196861798F380914702680F66
:100D70006093470280E0089581E008951092670330
:100D800081E0809346031092410361E082E10E947A
:100D9000DC0461E083E10E94DC04E9EBF0E08081A7
:100DA0008E7F808380818D7F808388E48093B800EC
:100DB00085E48093BC000895CF93DF9391E09093F6
:100DC00026028823B9F0C091B800D091BA00809172
:100DD000BC008A7B8093BC0060E082E10E94DC045E
:100DE00060E083E10E94DC040E94BE06D093BA005A
:100DF000C093B800DF91CF910895CF92DF92EF9228
:100E0000FF920F931F93CF93DF93D82FC62F61329A
:100E100008F098C00E940A056B017C01809167036D
:100E200081116BC081E080936703809346039FEF3D
:100E300090934503109244039C0F90934303809337
:100E4000420380914203DD0FD82BD093420380915F
:100E50004103813009F078C0109241030E940A05D5
:100E60006B017C01809142038093BB0080916903F8
:100E700090916A03A0916B03B0916C03892B8A2B2C
:100E80008B2BA1F00E940A050091690310916A035F
:100E900020916B0330916C036C197D098E099F09B9
:100EA000061717072807390708F448C08091BC00C7
:100EB00083FDD8CF85EC8093BC000E940A056B01AE
:100EC0007C0180916703813009F440C08091440324
:100ED0008C1710F4C0914403E1E2F3E0A7E4B3E01F
:100EE00080E08C1355C08C2FDF91CF911F910F9113
:100EF000FF90EF90DF90CF900895809169039091DB
:100F00006A03A0916B03B0916C03892B8A2B8B2B06
:100F100009F484CF0E940A050091690310916A03C5
:100F200020916B0330916C036C197D098E099F0928
:100F3000061717072807390708F070CF8091680354
:100F40000E94DC06C0E0CFCF85EEB5CF809169036B
:100F500090916A03A0916B03B0916C03892B8A2B4B
:100F60008B2B09F4AECF0E940A0500916903109102
:100F70006A0320916B0330916C036C197D098E0913
:100F80009F09061717072807390708F09ACFD6CF09
:100F900091919D938F5FA5CF8F929F92AF92BF92B9
:100FA000CF92DF92EF92FF920F931F93CF93DF9335
:100FB000D0912003D13208F0D7C0182FC0911F0361
:100FC0000E940A056B017C018091670381116BC04F
:100FD00082E080936703109346038FEF809345036D
:100FE00010924403D0934303AFEFB2E0E1E2F3E0A9
:100FF00080E0D81391C01092420380914203CC0F3D
:10100000C82BC093420380914103813009F088C00E
:10101000109241030E940A056B017C0180914203FA
:101020008093BB008091690390916A03A0916B0348
:10103000B0916C03892B8A2B8B2BA1F00E940A059F
:101040000091690310916A0320916B0330916C0346
:101050006C197D098E099F0906171707280739079C
:1010600008F442C08091BC0083FDD8CF85EC80930A
:10107000BC000E940A056B017C01809167038230ED
:1010800009F450C0809145038F3F09F46FC08091EF
:101090004503803209F46CC080914503803309F424
:1010A00069C084E026C08091690390916A03A09191
:1010B0006B03B0916C03892B8A2B8B2B09F484CFA3
:1010C0000E940A058090690390906A03A0906B03C8
:1010D000B0906C036C197D098E099F0986169706DE
:1010E000A806B90608F070CF809168030E94DC065C
:1010F00085E01092FE02109220031092FD02DF9113
:10110000CF911F910F91FF90EF90DF90CF90BF9004
:10111000AF909F908F9008959D9191938F5F69CF2D
:1011200085EEA5CF8091690390916A03A0916B032E
:10113000B0916C03892B8A2B8B2B09F49ECF0E94D4
:101140000A050091690310916A0320916B033091A5
:101150006C036C197D098E099F090617170728076C
:10116000390708F08ACFC0CF81E0C3CF80E0C1CF7C
:1011700082E0BFCF83E0BDCF0F931F93CF93DF9368
:10118000142F052FE901209711F4CAE0D4E091E073
:101190009093FD0280931F031092FE021092200391
:1011A000E881F9810190F081E02DCE010995E88177
:1011B000F9810190F081E02D602FCE010995E88141
:1011C000F9810190F081E02D612FCE01099581E038
:1011D0000E94CC0791E0811190E0892FDF91CF919F
:1011E0001F910F910895DF92EF92FF920F931F933B
:1011F000CF93DF93E42ED22EF32EE801209711F443
:10120000CAE0D4E091E09093FD0280931F03109216
:10121000FE0210922003E881F9810190F081E02D17
:10122000CE0109950D2D1F2DE00EF12EF11C0E158E
:101230001F0559F0F80161918F01E881F981019052
:10124000F081E02DCE010995F2CF81E00E94CC071C
:1012500091E0811190E0892FDF91CF911F910F9143
:10126000FF90EF90DF9008950F931F93CF93DF933C
:101270001F92CDB7DEB7498389019E012F5F3F4F93
:1012800041E00E94F3080F90DF91CF911F910F91E1
:101290000895EBE4F4E021813281482F6EE68081ED
:1012A0000C9434090895E0916F0280916E02E81762
:1012B00030F4F0E0E95BFC4F808190E008958FEF1F
:1012C0009FEF089590916F0280916E022FEF3FEF94
:1012D000981748F4E92FF0E0E95BFC4F208130E0FB
:1012E0009F5F90936F02C901089580916E02909163
:1012F0006F02891B990B0895CF92DF92EF92FF92B4
:101300000F931F93CF93DF937C01CB018A01209130
:10131000FD02222389F0EB016B01C40ED51ECC1512
:10132000DD0569F06991D701ED91FC910190F081A3
:10133000E02DC7010995F3CF642F0E949706C801DD
:10134000DF91CF911F910F91FF90EF90DF90CF90A1
:101350000895CF93DF931F92CDB7DEB769832091B5
:10136000FD022223F9F020912003203258F021E0E1
:1013700030E0FC013383228390E080E00F90DF9126
:10138000CF9108958091FE02E82FF0E0E150FD4FEB
:10139000998190838F5F8093FE028093200381E088
:1013A00090E0ECCF61E0CE0101960E949706F7CF66
:1013B00090E080E00895CF92DF92EF92FF92CF937A
:1013C000DF93EC01603282E07807CCF5653B710574
:1013D00014F064EB70E0898128E830E0281B3109C3
:1013E00087FD3395220F331F220F331F6901330FFF
:1013F000EE08FF088A8128E532E0281B310987FDC5
:101400003395220F331F220F331F032E000C440B82
:10141000550B2C193D094E095F09DB0177FF02C00E
:10142000B0E0A0E00E94391B24EB30E040E050E047
:101430000E940F1BC20ED31EE41EF51EB601E881EA
:10144000EC3070F5298188E890E0821B910927FD36
:101450009395880F991F880F991F681779077CF05B
:101460002A8188E592E0821B910927FD9395880FD8
:10147000991F880F991F681779070CF4CB01029701
:10148000880F991F4FB7F8942E2F30E0F901EE0F17
:10149000FF1FE20FF31FE059FD4F928381834FBF7F
:1014A000DF91CF91FF90EF90DF90CF900895FC01F6
:1014B00001900020E9F73197AF01481B590BBC019F
:1014C0008DE693E00C946F05CF93DF930E945C064A
:1014D000EC0186E391E00E94570A8C0F9D1FDF917B
:1014E000CF9108958F929F92AF92BF920F931F93C7
:1014F000CF93DF93CDB7DEB7A1970FB6F894DEBFD9
:101500000FBECDBF19A2423008F44AE08E010F5D34
:101510001F4F842E912CB12CA12CA50194010E9467
:10152000411BE62FB901CA01EA30F4F4E05DD801AD
:10153000EE938D01232B242B252B79F790E080E06F
:10154000109719F0CD010E94570AA1960FB6F89492
:10155000DEBF0FBECDBFDF91CF911F910F91BF9026
:10156000AF909F908F900895E95CE1CF0C94570A5B
:10157000CF93DF930E94570AEC0186E391E00E942B
:10158000570A8C0F9D1FDF91CF9108954F925F9264
:101590006F927F928F929F92AF92BF92CF92DF9283
:1015A000EF92FF920F931F93CF936B017C01742EE8
:1015B000AC019B010E94AD1E882399F089E391E064
:1015C000CF911F910F91FF90EF90DF90CF90BF9040
:1015D000AF909F908F907F906F905F904F900C9402
:1015E000570A46015701E894B7F82FEF3FEF4FE74E
:1015F0005FE7C501B4010E94AD1E81110DC02FEF40
:101600003FEF4FE75FE7C501B4010E94631C181666
:101610001CF48DE391E0D4CF2FEF3FEF4FE75FE471
:10162000C701B6010E94E91D18161CF481E491E07F
:10163000C7CF2FEF3FEF4FE75FECC701B6010E9426
:10164000631C87FDF3CF20E030E0A901C701B6019C
:101650000E94631C10E000E087FF0AC06DE28DE687
:1016600093E00E940F068C01F7FAF094F7F8F094DB
:10167000C0E060E070E080E09FE37C1641F020E095
:1016800030E040E251E40E94681CCF5FF6CFA70132
:1016900096010E94851B2B013C010E94E11C4B011D
:1016A0005C014AE00E94720A7C01E00EF11ECC232C
:1016B000C1F1C501B4010E94101D9B01AC01C30121
:1016C000B2010E94841B4B015C016EE28DE693E047
:1016D0000E940F06E80EF91EC15018F120E030E01C
:1016E00040E251E4C501B4010E94F61D2B013C010A
:1016F0000E94E11C4B01B12CA12C4AE0C501B401B0
:101700000E94720AE80EF91EC501B4010E94101D64
:101710009B01AC01C301B2010E94841B4B015C011F
:10172000DBCFC701CF911F910F91FF90EF90DF901A
:10173000CF90BF90AF909F908F907F906F905F9071
:101740004F9008950C94C60A2F923F924F925F9249
:101750006F927F928F929F92AF92BF92CF92DF92C1
:10176000EF92FF920F931F93CF93DF93CDB7DEB726
:101770002B970FB6F894DEBF0FBECDBFA82E6B839C
:10178000B42E3D832C836801FB86EA860E946105A6
:101790002B013C01EA84FB84EF2821F42AE034E0A9
:1017A0003B872A878B2C912C880C991C3B2D330F5F
:1017B00039838A82F12C10E0EE24E394C601B0E074
:1017C000A0E08E839F83A887B987F81419040CF0D2
:1017D00068C0E092FD02A0921F031092FE021092D8
:1017E0002003AA85BB85ED91FC9111970190F081B2
:1017F000E02D6B81CD01099581E00E94CC076981C4
:101800008A2D0E94FD0610926F0280936E0201E005
:10181000AA85BB85ED91FC9111970084F185E02D9F
:10182000CD010995892B89F11B1578F5C114D104D7
:10183000E9F4212E312C220C331CEC81FD812E0E7B
:101840003F1EAA85BB85ED91FC910284F385E02DB6
:1018500001111EC08A859B850995F1012081318186
:10186000822B932B918380831F5F19C00E94610597
:1018700064197509860997092E813F814885598524
:101880006217730784079507A0F23A81F30E9DCF84
:101890008A859B850995D1011C9211968C930E2502
:1018A000B7CFC114D10481F00E9461056419750994
:1018B00086099709F12CE12C6C157D058E059F0595
:1018C00018F01B1508F41FEF812F2B960FB6F89414
:1018D000DEBF0FBECDBFDF91CF911F910F91FF9063
:1018E000EF90DF90CF90BF90AF909F908F907F90C0
:1018F0006F905F904F903F902F9008952F923F925E
:101900004F925F926F927F928F929F92AF92BF920F
:10191000CF92DF92EF92FF920F931F93CF93DF93BB
:1019200000D000D000D0CDB7DEB789836A83D42E33
:101930003C832B83FE82ED820E9461054B015C019A
:10194000ED80FE80EF2821F48AE094E09E838D8371
:10195000F12CE12CC12C2D2C312C2801712C612C67
:10196000E214F3040CF05DC091E09093FD02A981B4
:10197000A0931F031092FE0210922003AD81BE813E
:10198000ED91FC9111970190F081E02D6A81CD01DC
:10199000099581E00E94CC07B1016E197F0961327F
:1019A000710514F060E270E0613208F060E2898154
:1019B0000E94FD0610926F0280936E02AD81BE817F
:1019C000ED91FC9111970084F185E02DCD010995F1
:1019D000892BF9F00115110589F4AD81BE81ED91D6
:1019E000FC9111970284F385E02DCD010995EB81DF
:1019F000FC81EC0DF11D8083C394E0CF0E94610552
:101A0000681979098A099B09641575058605970582
:101A100020F38D2DB0E2BD1508F480E2E80EF11C34
:101A20009FCF0115110589F00E9461056819790998
:101A30008A099B0930E020E060177107820793074D
:101A400020F0CD1410F4CC24CA948C2D26960FB619
:101A5000F894DEBF0FBECDBFDF91CF911F910F91E4
:101A6000FF90EF90DF90CF90BF90AF909F908F90BE
:101A70007F906F905F904F903F902F900895EF92DE
:101A8000FF920F931F93CF93DF93CBE4D4E0E980D1
:101A9000FA8008EE13E02EE434E042E062E7888149
:101AA0000E947E0C8B819C81982789279827DF9143
:101AB000CF911F910F91FF90EF900895EF92FF92B9
:101AC0000F931F93CF93DF93EC01E980FA809C0181
:101AD0002D5F3F4F08EE13E041E06AE388810E94EA
:101AE0007E0C8B81DF91CF911F910F91FF90EF9032
:101AF00008957F928F929F92AF92BF92CF92DF9282
:101B0000EF92FF920F931F93CF93DF931F92CDB766
:101B1000DEB7A82E962E742E822EB02E08EE13E07D
:101B20009E012F5F3F4F41E00E947E0C882399F178
:101B3000872D8819990BAC014F5F5F4F81E090E0D2
:101B400002C0880F991F8A94E2F70197042E01C002
:101B5000880F0A94EAF72B2D01C0220F4A95EAF765
:101B6000482F4095B9804B218223482B4983970108
:101B7000692D8A2D0E9434090F90DF91CF911F911A
:101B80000F91FF90EF90DF90CF90BF90AF909F901C
:101B90008F907F90089580E0EFCF8F929F92AF92C9
:101BA000BF92CF92DF92EF92FF920F931F93CF934A
:101BB000DF931F92CDB7DEB7B82EA62E842E922EBD
:101BC0006801780108EE13E09E012F5F3F4F41E06E
:101BD0000E947E0C81E090E001C0880F8A94EAF7B1
:101BE00049819920A9F0482B498396016A2D8B2DB4
:101BF0000E9434090F90DF91CF911F910F91FF90B8
:101C0000EF90DF90CF90BF90AF909F908F9008950E
:101C100080954823E9CFCF92DF92EF92FF920F9306
:101C20001F93CF93DF931F92CDB7DEB76C01FC01FA
:101C3000E180F28008EE13E09E012F5F3F4F41E00C
:101C400065E780810E947E0C882339F089818E7738
:101C500090E095958795F6018383F60183810F9037
:101C6000DF91CF911F910F91FF90EF90DF90CF9078
:101C700008952F923F924F925F926F927F928F9230
:101C80009F92AF92BF92CF92DF92EF92FF920F930B
:101C90001F93CF93DF9300D000D0CDB7DEB73C01C8
:101CA0004B01242E522E302E20914C0430914D04A5
:101CB0006DE680914B040E943409852D0E944909EC
:101CC00080E190E00E94C71E5C01002369F180E181
:101CD00090E00E94C71E9C838B83D12CC12CC6012F
:101CE0004096482C4C188816990610F080E1482E32
:101CF00080E091E0851991094816190619F014F051
:101D0000452C4194332099F0AB81BC8190E080E078
:101D100093012C0D3D1D841578F4F901E80FF91F8E
:101D2000E491ED930196F7CF1C821B82D6CFC301BD
:101D30008C0D9D1D9C838B8300914C0410914D0450
:101D40002B813C81442D6FE680914B040E94F30867
:101D5000842D90E09A838983A114B10409F446C0CC
:101D600020914C0430914D04422D4F716DE68091CD
:101D70004B040E943409852D0E944909E0904C04CF
:101D8000F0904D0408EE13E09501442D6FE680912C
:101D90004B040E947E0C49815A81B5018B819C8144
:101DA0000E94EC1F892B11F1C5010E94631F332093
:101DB00029F08B819C810E94631F312C832D0F9011
:101DC0000F900F900F90DF91CF911F910F91FF9087
:101DD000EF90DF90CF90BF90AF909F908F907F90CB
:101DE0006F905F904F903F902F90089589819A81D6
:101DF000C80ED91EC814D904B8F4540C09F423949D
:101E000020914C0430914D04422D4F716DE680912C
:101E10004B040E943409852D0E94490960CF8B81B3
:101E20009C810E94631FCACFC5010E94631F3110AD
:101E3000F6CF33243394C2CF85ED8093BC008091DC
:101E4000690390916A03A0916B03B0916C030796AC
:101E5000A11DB11D23E0B695A795979587952A9565
:101E6000D1F72091BC0024FD03C0109267030895B0
:101E70004091690350916A0360916B0370916C0308
:101E8000452B462B472B69F30097A105B10541F07F
:101E90002AE22A95F1F700C00197A109B109E1CF23
:101EA000809168030C94DC061F920F920FB60F927C
:101EB00011242F933F938F939F93AF93BF93809160
:101EC000F5029091F602A091F702B091F8023091DC
:101ED000F40223E0230F2D3758F50196A11DB11D03
:101EE0002093F4028093F5029093F602A093F702F8
:101EF000B093F8028091F9029091FA02A091FB024E
:101F0000B091FC020196A11DB11D8093F90290933E
:101F1000FA02A093FB02B093FC02BF91AF919F9194
:101F20008F913F912F910F900FBE0F901F9018959A
:101F300026E8230F0296A11DB11DD2CF1F920F924A
:101F40000FB60F9211242F933F934F935F936F938C
:101F50007F938F939F93AF93BF93EF93FF938DE600
:101F600093E00E94ED05FF91EF91BF91AF919F919A
:101F70008F917F916F915F914F913F912F910F9032
:101F80000FBE0F901F9018951F920F920FB60F92D1
:101F900011242F938F939F93EF93FF93E0917D03F1
:101FA000F0917E038081E0918303F091840382FDB0
:101FB0001BC09081809186038F5F8F732091870370
:101FC000821741F0E0918603F0E0E359FC4F958FD2
:101FD00080938603FF91EF919F918F912F910F90A6
:101FE0000FBE0F901F9018958081F4CF1F920F9213
:101FF0000FB60F9211242F933F934F935F936F93DC
:102000007F938F939F93AF93BF93EF93FF938091B1
:10201000B900887F803609F44AC0F0F5883209F4A7
:10202000A7C018F5803109F49BC0B8F4882309F4DF
:10203000F9C0883009F494C0FF91EF91BF91AF913E
:102040009F918F917F916F915F914F913F912F91D0
:102050000F900FBE0F901F901895883109F488C01B
:10206000803251F78093450314C0803409F49DC039
:1020700040F48033B9F38833F9F68093450385EC57
:10208000B0C0803509F485C0883509F496C088341D
:1020900099F60E941C0FD0CF883909F48CC038F50E
:1020A000883729F050F4883611F0803729F683E01C
:1020B000809367031092690257C0883809F47BC087
:1020C000803919F0803809F0B7CF809169028032E9
:1020D00008F071C0E091690281E08E0F809369027F
:1020E0008091BB00F0E0E75BFD4F80833DC0803B0B
:1020F00039F0E0F4803A09F479C0883A09F09CCFCD
:1021000084E0809367031092480210924702E091A6
:102110006C02F0916D0209958091470281110FC008
:1021200081E0809347021092270209C0803C09F4A5
:10213000A6CF883C09F4A3CF883B09F07DCFE0917E
:10214000480281E08E0F80934802F0E0E95DFD4F88
:1021500080818093BB00909148028091470229C002
:10216000809142038093BB0085EC8093BC0064CFD8
:102170009091440380914303981758F5E0914403EC
:1021800081E08E0F80934403F0E0EF5DFC4F80818F
:10219000E9CFE091440381E08E0F80934403809166
:1021A000BB00F0E0EF5DFC4F808390914403809191
:1021B00043039817C8F285E8D8CFE091440381E043
:1021C0008E0F809344038091BB00F0E0EF5DFC4FE5
:1021D00080838091460381115CCF81E0809341032D
:1021E00084EA8093BC001092670326CF85EC80932D
:1021F000BC001092670380916902803230F4E09154
:102200006902F0E0E75BFD4F10826091690270E0C7
:10221000E0916A02F0916B0289E492E009951092D4
:1022200069020ACF1092450334CF1F920F920FB666
:102230000F9211242F933F934F935F936F937F934C
:102240008F939F93AF93BF93CF93DF93EF93FF93BE
:1022500080912402C0912502D0E087FF24C0109213
:10226000850010928400809124028F5F8093240265
:1022700080912402082E000C990B8C179D0724F4E2
:10228000809124028C30C4F180918400909185006B
:10229000049680349C4908F47AC08091840090911F
:1022A0008500049676C080912402082E000C990BBC
:1022B0008C179D07C4F6E09124028E2FEE0F990B28
:1022C000FC01EE0FFF1FE80FF91FE059FD4F808161
:1022D00086FFC9CFE09124028E2FEE0F990BFC01EF
:1022E000EE0FFF1FE80FF91FE059FD4F808160E0FE
:1022F0008F730E94DC04B7CF209184003091850059
:10230000E09124028E2FEE0F990BFC01EE0FFF1FC0
:10231000E80FF91FE059FD4F81819281820F931FD1
:102320009093890080938800E09124028E2FEE0F15
:10233000990BFC01EE0FFF1FE80FF91FE059FD4F4D
:10234000808186FF11C0E09124028E2FEE0F990B41
:10235000FC01EE0FFF1FE80FF91FE059FD4F8081D0
:1023600061E08F730E94DC04FF91EF91DF91CF91C8
:10237000BF91AF919F918F917F916F915F914F919D
:102380003F912F910F900FBE0F901F90189580E4F2
:102390009CE990938900809388008FEF80932402BA
:1023A000E3CFFC01909125029C3098F481E0890FE5
:1023B000809325029083892F90E0FC01EE0FFF1F90
:1023C000E80FF91FE059FD4F88EB9BE09283818372
:1023D00008958FEF80830895EDE6F3E01382128273
:1023E00088EE93E0A0E0B0E084839583A683B78372
:1023F00026E131E03183208325EC30E035872487E6
:1024000024EC30E03787268720EC30E0318B208BBE
:1024100021EC30E0338B228B22EC30E0358B248BA7
:1024200026EC30E0378B268B118E128E138E148E95
:10243000EAE0F4E01382128284839583A683B78353
:1024400088E291E091838083EBE4F4E088E6808386
:102450001282118288EF9AE2A0E0B0E0818B928B29
:10246000A38BB48B88E494E00E94D11185E494E0BE
:102470000E94D11182E494E00E94D111E2E3F4E0E1
:1024800080E090E0A0E8BFE380839183A283B383E0
:102490001482158216821782108611861286138680
:1024A0001486158616861786E6E2F4E010821182FD
:1024B0001282138214821582168217821086118668
:1024C0001286138680E090E0A4EBB2E480932204AD
:1024D00090932304A0932404B093250480931E04B6
:1024E00090931F04A0932004B093210480931A04B6
:1024F00090931B04A0931C04B0931D0480931604B6
:1025000090931704A0931804B09319040895CF93DF
:10251000DF93CDB7DEB7C259D1090FB6F894DEBF4D
:102520000FBECDBF789484B5826084BD84B58160D0
:1025300084BD85B5826085BD85B5816085BD80918E
:102540006E00816080936E00109281008091810006
:1025500082608093810080918100816080938100FE
:10256000809180008160809380008091B1008460C0
:102570008093B1008091B00081608093B000809121
:102580007A00846080937A0080917A0082608093E0
:102590007A0080917A00816080937A0080917A003D
:1025A000806880937A001092C1008DE2EBE4F4E041
:1025B000DE01119601900D928A95E1F710926F025B
:1025C00010926E021092FE02109220030E94BE062C
:1025D0008DE695E090936D0280936C028EE695E017
:1025E00090936B0280936A02E0917D03F0917E03E9
:1025F00082E08083E0917903F0917A031082E09188
:102600007B03F0917C038FEC808310928503E09133
:102610008103F091820386E08083E0917F03F09153
:102620008003808180618083E0917F03F09180034B
:10263000808188608083E0917F03F09180038081B6
:1026400080688083E0917F03F091800380818F7D9B
:10265000808385E491E00E94B80AEA80FB8001E073
:1026600023E042E06BE689810E94790D80E090E0F2
:10267000AAE7BCE38A8F9B8FAC8FBD8FEA80FB807B
:1026800000E022E044E06BE189810E94790D80E066
:1026900090E0A0E0B9E38E8B9F8BA88FB98FEA8082
:1026A000FB8022E044E06CE189810E94790D0A817F
:1026B0001B8120E046E06BE689810E94CD0D89E513
:1026C00091E00E94B80A8BE691E00E94B80ACE0120
:1026D00001960E940B0E843349F08C3039F08A3316
:1026E00029F089E891E00E94B80AFFCF83EA91E0DF
:1026F0000E94B80A8DE2EBE4F4E0DE019E960190C0
:102700000D928A95E1F70091000110910101CE012F
:102710008E960E940B0E66E0883308F067E72FA5BF
:1027200038A9A8018EA50E94BC0800910201109151
:102730000301CE018E960E940B0E68E0883308F0EC
:102740006AE72FA538A9A8018EA50E94BC080091B0
:10275000040110910501CE018E960E940B0E6AE0D5
:10276000883308F06DE72FA538A9A8018EA50E942F
:10277000BC082FA538A9409106015091070163E1DB
:102780008EA50E94BC082FA538A940910801509140
:10279000090165E18EA50E94BC082FA538A94091CA
:1027A0000A0150910B0167E18EA50E94BC088BEADB
:1027B00098E00E94640A00914C0410914D0421E0BD
:1027C00047E06BE680914B040E94CD0D6EE170E016
:1027D00080E090E00E942F0500914C0410914D0480
:1027E00020E046E06BE680914B040E94CD0D2091E5
:1027F0004C0430914D0440E76DE680914B040E94FB
:10280000340986E00E94490920914C0430914D041E
:1028100040E06DE680914B040E94340920914C0405
:1028200030914D044FE765E280914B040E943409DA
:1028300000914C0410914D0420E045E06AE680913F
:102840004B040E94CD0D20914C0430914D0448E67C
:1028500065E280914B040E94340900914C04109170
:102860004D0421E041E06AE680914B040E94CD0DC9
:1028700064E170E080E090E00E942F05E0904C045D
:10288000F0904D0403E023E042E06BE680914B04BE
:102890000E94790D20914C0430914D0442E168E38F
:1028A00080914B040E94340920914C0430914D04D6
:1028B00044E069E180914B040E943409E0904C04AB
:1028C000F0904D0401E023E045E06AE180914B0483
:1028D0000E94790DE0904C04F0904D0403E023E059
:1028E00042E06AE180914B040E94790D80E090E023
:1028F000AAEFBDE38093640490936504A0936604FB
:10290000B0936704E0904C04F0904D0422E044E062
:102910006BE180914B040E94790D01E020E040E0E2
:1029200069E877E086E990E00E94390E882309F48F
:102930008EC06C961FAE6C9781E06D968FAF6D97D1
:1029400000E026E142E062E070E0CE01855A9F4F50
:102950000E94390E20914C0430914D0443E060E711
:1029600080914B040E94340920914C0430914D0415
:1029700040E061E780914B040E94340900914C04CF
:1029800010914D0420E040E060E080914B040E94F3
:10299000CD0D20914C0430914D0442E06FE18091C7
:1029A0004B040E94340920914C0430914D044CE9B1
:1029B00061E280914B040E94340920914C043091D3
:1029C0004D0440E560E280914B040E94340920915F
:1029D0004C0430914D0440E062E280914B040E942F
:1029E000340900914C0410914D0421E046E06AE660
:1029F00080914B040E94CD0D00914C0410914D0428
:102A000021E043E06AE680914B040E94CD0D0091E5
:102A10004C0410914D0420E047E06AE680914B049D
:102A20000E94CD0D8AE290E0909377048093760423
:102A300000914C0410914D0421E042E06AE680913F
:102A40004B040E94CD0D8BE494E00E945E0D20911A
:102A50004C0430914D04409106015091070163E10F
:102A600080914B040E94BC0820914C0430914D048D
:102A7000409108015091090165E180914B040E9449
:102A8000BC0820914C0430914D0440910A015091B2
:102A90000B0167E180914B040E94BC0881EC91E03E
:102AA0000E94B80A8BE494E00E940B0EE0904C0464
:102AB000F0904D0408EE13E028E634E043E066E0D1
:102AC0008833D0F041E067E780914B040E94A40B6B
:102AD000E0904C04F0904D042AE634E041E06AE7CF
:102AE00080914B040E94A40BE0904C04F0904D04A4
:102AF0002CE634E041E06DE780914B040E94A40B8A
:102B0000E0904C04F0904D0408EE13E02EE634E023
:102B100043E063E180914B040E94A40B6091680440
:102B200070916904072E000C880B990B0E94121DEE
:102B300045E050E00E94A20B80EE91E00E94B60AB0
:102B400060916A0470916B04072E000C880B990B3E
:102B50000E94121D45E050E00E94A20B80EE91E021
:102B60000E94B60A60916C0470916D04072E000CEF
:102B7000880B990B0E94121D45E050E00E94A20BA9
:102B800080EE91E00E94B60A60916E0470916F042D
:102B9000072E000C880B990B0E94121D45E050E097
:102BA0000E94A20B80EE91E00E94B60A6091700430
:102BB00070917104072E000C880B990B0E94121D56
:102BC00045E050E00E94A20B80EE91E00E94B60A20
:102BD0006091720470917304072E000C880B990B9E
:102BE0000E94121D45E050E00E94A20B83EE91E08E
:102BF0000E94B60A8BE998E00E94640A00914C0496
:102C000010914D0421E047E06AE680914B040E9458
:102C1000CD0D81E698E00E945C068CE598E00E946C
:102C2000640A8BE494E00E945E0D82E398E00E94C7
:102C3000640A89E298E00E94640A809148048C301A
:102C400008F068C0E0EFF8E02491ECEDF8E0849142
:102C5000882399F090E0880F991FFC01E15EF74FFF
:102C6000A591B491FC01E753F74F859194918FB7EB
:102C7000F894EC91E22BEC938FBF80914804282FBD
:102C800030E0F901EE0FFF1FE20FF31FE059FD4F97
:102C90009081907C996090831092490410924A042C
:102CA0002CE0622F0E94721B829FB001112430E041
:102CB00020E0AB01420F531FFA01EE0FFF1FE40F9C
:102CC000F51FE059FD4F908196FD16C02F5F3F4FD5
:102CD0002C30310571F781110FC01092800082E015
:102CE000809381001092850010928400B19A8091A7
:102CF0006F00826080936F00E09148048E2F90E017
:102D0000FC01EE0FFF1FE80FF91FE059FD4F808116
:102D100080648083EDEEF8E02491E9EDF8E08491A1
:102D20008823C9F090E0880F991FFC01E15EF74FFE
:102D3000A591B491FC01E753F74F459154919FB78A
:102D4000F8943C91822F809583238C93DA018C91A7
:102D5000282B2C939FBF6AE570E088E494E00E94E2
:102D6000DB098091E8029091E902A091EA02B0911A
:102D7000EB028093E4029093E502A093E602B09305
:102D8000E7028091220490912304A0912404B09141
:102D9000250480931E0490931F04A0932004B093F5
:102DA00021046090760470907704EC966FAEEC97F7
:102DB0000E940A051B012C015301BB240E943F0DF8
:102DC0009C01A816B9060CF082C1893C91050CF44F
:102DD00054C100914C0410914D0421E042E06AE698
:102DE00080914B040E94CD0D0E943F0D9C01892BC8
:102DF00009F071C10E940A056219730984099509D5
:102E0000C0905C04D0905D04E0905E04F0905F049C
:102E1000C616D706E806F90638F7C090E802D09043
:102E2000E902E090EA02F090EB0220E030E044EBAF
:102E300052ECC701B6010E94631C87FF76C120E0F7
:102E400030E044EB52E460919402709195028091DD
:102E50009602909197020E94E91D18160CF065C128
:102E600020E030E0A901C701B6010E94E91D181653
:102E70000CF052C1A701960160E070E084EB93E48E
:102E80000E94841B6093E8027093E9028093EA0237
:102E90009093EB0286EE91E00E94B60A20E030E0CB
:102EA00044E353E460919C0270919D0280919E02E4
:102EB00090919F020E94F61D2BED3FE049E450E403
:102EC0000E94681C42E050E00E94A20B81EE91E05B
:102ED0000E94B60A82EF91E00E94B60A6091E40275
:102EE0007091E5028091E6029091E70242E050E0A5
:102EF0000E94A20B81EE91E00E94B60A8FEF91E052
:102F00000E94B60A6091E8027091E9028091EA029B
:102F10009091EB0242E050E00E94A20B81EE91E022
:102F20000E94B60A8FE092E00E94B60A2091E40265
:102F30003091E5024091E6025091E7026091E8028B
:102F40007091E9028091EA029091EB020E94841B49
:102F500042E050E00E94A20B81EE91E00E94B60A8E
:102F60008CE192E00E94B60A6091220470912304E1
:102F7000809124049091250442E00E94C60A86E3D1
:102F800091E00E94570A20E030E044E353E460916E
:102F90009C0270919D0280919E0290919F020E94DE
:102FA000F61D2BED3FE049E450E40E94681C60935D
:102FB0009402709395028093960290939702E1E0B9
:102FC000F9E08491EDEEF8E09491E9EDF8E0F49009
:102FD000FF2061F081110E94B304EF2DF0E0EE0FAD
:102FE000FF1FE154F74FA591B4918C9120912204D9
:102FF00030912304409124045091250460911A04D7
:1030000070911B0480911C0490911D040E94841BEC
:1030100020911E0430911F044091200450912104FE
:103020000E94851B6B017C01C0921604D09217048C
:10303000E0921804F09219040E94DA1C88E494E0EB
:103040000E94DB09C0921A04D0921B04E0921C0477
:10305000F0921D046FE070E080E090E00E942F0588
:1030600080E090E0892B09F47CCE0E94D90588236A
:1030700009F477CE0E94000074CE0E943F0D9C019F
:10308000A816B90624F56C01CA18DB084601B1E29E
:10309000CB16D1041CF090E2892E912C882099F057
:1030A000E0904C04F0904D0408EE13E09E01255A88
:1030B0003F4F482D64E780914B040E947E0CC81856
:1030C000D90821F7DACF6C961FAE6C97F8CF21158F
:1030D000310509F4A2CEA216B30609F447C00E9436
:1030E0000A056219730984099509C0905C04D0909F
:1030F0005D04E0905E04F0905F04C616D706E80613
:10310000F90608F05BCE89CE1092A40242C06BEDA6
:103110007FE089E490EC3EC220E030E044EB53E4F1
:10312000C701B6010E94851BADCE2091E40230910B
:10313000E5024091E6025091E702C701B6010E9404
:10314000841B9B01AC016091220470912304809147
:103150002404909125040E94851B6093220470939F
:103160002304809324049093250494CEEC969FAD81
:10317000EC97992349F2E0904C04F0904D0408EE4E
:1031800013E024EA32E0462D64E780914B040E946C
:103190007E0C6090A8027090A902762467247624A1
:1031A0008090AC029090AD02982489249824A0903D
:1031B000B002B090B102BA24AB24BA246091A40248
:1031C0007091A502762767277627072E000C880BBB
:1031D000990B0E94121D20E030E040E858E30E9465
:1031E000F61D6B017C01C0923204D0923304E09250
:1031F0003404F0923504B301770C880B990B0E94CC
:10320000121D20E030E040E858E30E94F61D2B013B
:103210003C01409236045092370460923804709218
:103220003904B401990C880B990B0E94121D20E0FF
:1032300030E040E858E30E94F61DEF966CAF7DAF9A
:103240008EAF9FAFEF9760933A0470933B048093E7
:103250003C0490933D04B501BB0C880B990B0E9474
:10326000121D20E030E040E858E30E94F61DC158EE
:10327000DF4F688379838A839B83CF57D0406093E5
:103280003E0470933F0480934004909341049B015B
:10329000AC01C301B2010E94F61D4B015C01EF9627
:1032A0002CAD3DAD4EAD5FADEF97C701B6010E94AD
:1032B000F61D9B01AC01C501B4010E94841B9B015A
:1032C000AC010E94851BC557DF4F688379838A83D1
:1032D0009B83CB58D040609326047093270480933F
:1032E000280490932904A3019201C701B6010E940A
:1032F000F61D4B015C01C158DF4F288139814A819D
:103300005B81CF57D040EF966CAD7DAD8EAD9FAD5C
:10331000EF970E94F61D9B01AC01C501B4010E940C
:10332000851B9B01AC010E94851BC957DF4F688339
:1033300079838A839B83C758D04060932A04709313
:103340002B0480932C0490932D04A7019601C701B0
:10335000B6010E94F61D4B015C01A3019201C3015D
:10336000B2010E94F61D9B01AC01C501B4010E948F
:10337000841B4B015C01EF962CAD3DAD4EAD5FADB6
:10338000EF97CA01B9010E94F61D9B01AC01C5016E
:10339000B4010E94841B4B015C01C158DF4F28819E
:1033A00039814A815B81CF57D040CA01B9010E945F
:1033B000F61D9B01AC01C501B4010E94851BCD57D0
:1033C000DF4F688379838A839B83C358D04060939F
:1033D0002E0470932F048093300490933104A7013E
:1033E0009601C701B6010E94851B4B015C01A30138
:1033F0009201C301B2010E94851BC157DF4F688350
:1034000079838A839B83CF58D040A7019601C50159
:10341000B4010E94F61D6B017C01A3019201C1570A
:10342000DF4F688179818A819B81CF58D0400E948B
:10343000F61D9B01AC01C701B6010E94851B20E06F
:1034400030E040E85FE30E94841B6B017C01EF9653
:103450002CAD3DAD4EAD5FADEF97C157DF4F6881ED
:1034600079818A819B81CF58D0400E94F61D2B0123
:103470003C01C158DF4F288139814A815B81CF5798
:10348000D040C501B4010E94F61D9B01AC01C301EF
:10349000B2010E94841BA70196010E94041C4B01EB
:1034A0005C018092980290929902A0929A02B09246
:1034B0009B02C957DF4F288139814A815B81C758F8
:1034C000D040CA01B9010E94F61D6B017C01CD57A5
:1034D000DF4F288139814A815B81C358D040CA01BE
:1034E000B9010E94F61D9B01AC01C701B6010E9403
:1034F000851B0E94691E9B01AC01C557DF4F688187
:1035000079818A819B81CB58D0400E94041C6B0139
:103510007C01C0929C02D0929D02E0929E02F092A9
:103520009F02CD57DF4F288139814A815B81C35883
:10353000D040C957DF4F688179818A819B81C75804
:10354000D0400E94041C6093A0027093A10280935B
:10355000A2029093A30220E030E0A901CD57DF4FF3
:10356000688179818A819B81C358D0400E94631C05
:1035700087FF1AC020E030E0A901C701B6010E9410
:10358000E91DA701960118160CF0C1CD6BED7FE087
:1035900089E490E40E94841B60939C0270939D02D6
:1035A00080939E0290939F0220E030E044E353E436
:1035B000C501B4010E94F61D2BED3FE049E450E443
:1035C0000E94681C6093F0027093F1028093F202F3
:1035D0009093F30220E030E044E353E460919C02D6
:1035E00070919D0280919E0290919F020E94F61D13
:1035F0002BED3FE049E450E40E94681C6093EC022C
:103600007093ED028093EE029093EF026093E802D4
:103610007093E9028093EA029093EB02FECB052EB1
:1036200097FB1EF400940E94261B57FD07D00E94B2
:10363000411B07FC03D04EF40C94261B509540957B
:10364000309521953F4F4F4F5F4F0895909580954E
:10365000709561957F4F8F4F9F4F08950E94631B18
:10366000A59F900DB49F900DA49F800D911D1124D6
:103670000895B7FF0C942E1B0E942E1B821B930BE8
:103680000895A1E21A2EAA1BBB1BFD010DC0AA1FA3
:10369000BB1FEE1FFF1FA217B307E407F50720F0BB
:1036A000A21BB30BE40BF50B661F771F881F991F36
:1036B0001A9469F760957095809590959B01AC017F
:1036C000BD01CF010895A29FB001B39FC001A39F88
:1036D000700D811D1124911DB29F700D811D11244B
:1036E000911D0895991B79E004C0991F961708F061
:1036F000961B881F7A95C9F780950895EE0FFF1FD6
:103700000590F491E02D09945058BB27AA270E94F8
:103710009C1B0C94AF1D0E94A11D38F00E94A81D97
:1037200020F039F49F3F19F426F40C94771D0EF421
:10373000E095E7FB0C94711DE92F0E94C01D58F322
:10374000BA17620773078407950720F079F4A6F586
:103750000C94E21D0EF4E0950B2EBA2FA02D0B0158
:10376000B90190010C01CA01A0011124FF27591BC6
:1037700099F0593F50F4503E68F11A16F040A22FCC
:10378000232F342F4427585FF3CF4695379527953D
:10379000A795F0405395C9F77EF41F16BA0B620B3C
:1037A000730B840BBAF09150A1F0FF0FBB1F661F83
:1037B000771F881FC2F70EC0BA0F621F731F841FC6
:1037C00048F4879577956795B795F7959E3F08F0EC
:1037D000B0CF9395880F08F09927EE0F97958795AE
:1037E00008950E94A11D60F080E891E009F49EEF29
:1037F0000E94A81D28F040E851E071F45EEF0CC073
:103800000C94771D0C94E21DE92FE0780E94C01DF6
:1038100040F3092E052AB1F3261737074807590741
:1038200038F00E2E07F8E02569F0E025E0640AC0C4
:10383000EF6307F8009407FADB01B9019D01DC0191
:10384000CA01AD01EF930E947F1C0E94AF1D0E9430
:10385000341C5F91552339F02BED3FE049E450FDD6
:1038600049EC0C94851B0895DF93DD27B92FBF77B2
:1038700040E85FE31616170648075B0718F4D92FD0
:103880000E94EE1D9F938F937F936F930E94A91EBA
:10389000E8E6F0E00E947A1D0E94AF1D2F913F9153
:1038A0004F915F910E94091EDD2351F09058A2EACA
:1038B0002AED3FE049EC5FE3D0785D270E949C1B36
:1038C000DF910C94AF1D0E944D1D08F481E0089516
:1038D0000E947C1C0C94AF1D0E94A81D58F00E94F1
:1038E000A11D40F029F45F3F29F00C94711D511186
:1038F0000C94E31D0C94771D0E94C01D68F399235E
:10390000B1F3552391F3951B550BBB27AA276217DB
:103910007307840738F09F5F5F4F220F331F441FE8
:10392000AA1FA9F335D00E2E3AF0E0E832D091501C
:103930005040E695001CCAF72BD0FE2F29D0660F09
:10394000771F881FBB1F261737074807AB07B0E84C
:1039500009F0BB0B802DBF01FF2793585F4F3AF052
:103960009E3F510578F00C94711D0C94E31D5F3F50
:10397000E4F3983ED4F3869577956795B795F795D8
:103980009F5FC9F7880F911D9695879597F90895C0
:10399000E1E0660F771F881FBB1F6217730784075C
:1039A000BA0720F0621B730B840BBA0BEE1F88F76B
:1039B000E09508950E94E11C6894B1110C94E31DF8
:1039C00008950E94C81D88F09F5798F0B92F992735
:1039D000B751B0F0E1F0660F771F881F991F1AF0FA
:1039E000BA95C9F714C0B13091F00E94E21DB1E060
:1039F00008950C94E21D672F782F8827B85F39F05F
:103A0000B93FCCF3869577956795B395D9F73EF492
:103A100090958095709561957F4F8F4F9F4F08953A
:103A2000E89409C097FB3EF4909580957095619558
:103A30007F4F8F4F9F4F9923A9F0F92F96E9BB270E
:103A40009395F695879577956795B795F111F8CF8A
:103A5000FAF4BB0F11F460FF1BC06F5F7F4F8F4FF5
:103A60009F4F16C0882311F096E911C0772321F0EB
:103A70009EE8872F762F05C0662371F096E8862F83
:103A800070E060E02AF09A95660F771F881FDAF7DA
:103A9000880F9695879597F90895990F0008550F07
:103AA000AA0BE0E8FEEF16161706E807F907C0F0C4
:103AB00012161306E407F50798F0621B730B840BCC
:103AC000950B39F40A2661F0232B242B252B21F4A6
:103AD00008950A2609F4A140A6958FEF811D811D46
:103AE000089597F99F6780E870E060E008959FEF80
:103AF00080EC0895DF93CF931F930F93FF92EF9283
:103B0000DF927B018C01689406C0DA2EEF010E94DF
:103B1000091EFE01E894A591259135914591559195
:103B2000A6F3EF010E949C1BFE019701A801DA9405
:103B300069F7DF90EF90FF900F911F91CF91DF9188
:103B4000089500240A941616170618060906089503
:103B500000240A9412161306140605060895092E69
:103B60000394000C11F4882352F0BB0F40F4BF2BD8
:103B700011F460FF04C06F5F7F4F8F4F9F4F089518
:103B800057FD9058440F551F59F05F3F71F047950E
:103B9000880F97FB991F61F09F3F79F087950895F3
:103BA000121613061406551FF2CF4695F1DF08C012
:103BB000161617061806991FF1CF8695710561052F
:103BC00008940895E894BB2766277727CB0197F9D7
:103BD00008950E944D1D08F48FEF08959B01AC01DC
:103BE00060E070E080E89FE30C94681C0E94091E6E
:103BF0000C94AF1D0E94A11D38F00E94A81D20F05A
:103C0000952311F00C94711D0C94771D11240C94C4
:103C1000E31D0E94C01D70F3959FC1F3950F50E006
:103C2000551F629FF001729FBB27F00DB11D639F6E
:103C3000AA27F00DB11DAA1F649F6627B00DA11D14
:103C4000661F829F2227B00DA11D621F739FB00DBA
:103C5000A11D621F839FA00D611D221F749F33272A
:103C6000A00D611D231F849F600D211D822F762FC3
:103C70006A2F11249F5750409AF0F1F088234AF0A0
:103C8000EE0FFF1FBB1F661F771F881F915050400C
:103C9000A9F79E3F510580F00C94711D0C94E31D13
:103CA0005F3FE4F3983ED4F3869577956795B79593
:103CB000F795E7959F5FC1F7FE2B880F911D9695AD
:103CC000879597F9089519F416F40C94771D0C94C0
:103CD000B21E0E94C81DB8F39923C9F3B6F39F57CB
:103CE000550B87FF0E94C01E0024A0E640EA900109
:103CF00080585695979528F4805C660F771F881F2B
:103D000020F026173707480730F4621B730B840B2B
:103D1000202931294A2BA69517940794202531256F
:103D20004A2758F7660F771F881F20F02617370796
:103D3000480730F4620B730B840B200D311D411DBD
:103D4000A09581F7B901842F9158880F9695879592
:103D500008959B01AC010C94F61D0E944D1D880B2B
:103D6000990B08959F3F31F0915020F487957795F6
:103D70006795B795880F911D9695879597F9089542
:103D800091505040660F771F881FD2F708950F9308
:103D90001F93CF93DF938230910510F482E090E07F
:103DA000E0917A04F0917B0430E020E0B0E0A0E004
:103DB000309799F42115310509F44AC0281B390BB5
:103DC00024303105D8F58A819B816115710589F10F
:103DD000FB0193838283FE0111C0408151810281E6
:103DE000138148175907E0F04817590799F41097BD
:103DF00061F012960C93129713961C933296CF0192
:103E0000DF91CF911F910F91089500937A04109341
:103E10007B04F4CF2115310551F04217530738F0D8
:103E2000A901DB019A01BD01DF01F801C1CFEF015A
:103E3000F9CF90937B0480937A04CDCFFE01E20FFB
:103E4000F31F819391932250310939832883D7CF6F
:103E50002091780430917904232B41F420910E01B4
:103E600030910F01309379042093780420910C0154
:103E700030910D012115310541F42DB73EB7409128
:103E8000100150911101241B350BE0917804F09141
:103E90007904E217F307A0F42E1B3F0B281739070C
:103EA00078F0AC014E5F5F4F2417350748F04E0F96
:103EB0005F1F5093790440937804819391939FCF2F
:103EC000F0E0E0E09CCFCF93DF930097E9F0FC01B6
:103ED000329713821282A0917A04B0917B04ED0193
:103EE00030E020E01097A1F420813181820F931FF0
:103EF00020917804309179042817390709F061C0BE
:103F0000F0937904E0937804DF91CF910895EA016A
:103F1000CE17DF07E8F54A815B819E014115510507
:103F2000B1F7E901FB83EA8349915991C40FD51F89
:103F3000EC17FD0761F4808191810296840F951F33
:103F4000E90199838883828193819B838A83F0E04E
:103F5000E0E012968D919C9113970097B9F52D9101
:103F60003C911197CD010296820F931F2091780406
:103F7000309179042817390739F6309751F51092A6
:103F80007B0410927A04B0937904A0937804BCCF98
:103F9000D383C28340815181840F951FC817D907ED
:103FA00061F44E5F5F4F88819981480F591F51839B
:103FB00040838A819B81938382832115310509F097
:103FC000B0CFF0937B04E0937A049ECFFD01DC0137
:103FD000C0CF13821282D7CFFB01DC0104C08D91C8
:103FE0000190801921F441505040C8F7881B990B6B
:063FF0000895F894FFCFD4
:103FF60029055104F705610015002F0000007C0417
:104006008000000000000F066F059C057706CD05B1
:10401600AB05BF0500000000A9097C09D8095209B3
:104026007509620953090D0A006E616E00696E66B4
:10403600006F766600496E697469616C697A696EAB
:1040460067204D50552E2E2E004D505520696E6915
:104056007469616C697A6174656400546573746926
:104066006E672064657669636520636F6E6E65634F
:1040760074696F6E732E2E2E004D505536303530C6
:1040860020636F6E6E656374696F6E206661696C1E
:104096006564004D50553630353020636F6E6E6561
:1040A6006374696F6E207375636365737366756C8D
:1040B60000546865736520617265207468652041E7
:1040C6006374697665206F6666736574733A20005B
:1040D6002C09000A0A0052617720616E676C653A06
:1040E60020005072657620616E676C653A20004349
:1040F600757272656E7420616E676C653A20004455
:104106006966666572656E63653A200043756D2063
:044116005A3A2000F1
:00000001FF
